{
  "contractName": "MyNFT",
  "abi": [
    {
      "inputs": [],
      "stateMutability": "nonpayable",
      "type": "constructor"
    },
    {
      "anonymous": false,
      "inputs": [
        {
          "indexed": true,
          "internalType": "address",
          "name": "owner",
          "type": "address"
        },
        {
          "indexed": true,
          "internalType": "address",
          "name": "approved",
          "type": "address"
        },
        {
          "indexed": true,
          "internalType": "uint256",
          "name": "tokenId",
          "type": "uint256"
        }
      ],
      "name": "Approval",
      "type": "event"
    },
    {
      "anonymous": false,
      "inputs": [
        {
          "indexed": true,
          "internalType": "address",
          "name": "owner",
          "type": "address"
        },
        {
          "indexed": true,
          "internalType": "address",
          "name": "operator",
          "type": "address"
        },
        {
          "indexed": false,
          "internalType": "bool",
          "name": "approved",
          "type": "bool"
        }
      ],
      "name": "ApprovalForAll",
      "type": "event"
    },
    {
      "anonymous": false,
      "inputs": [
        {
          "indexed": true,
          "internalType": "address",
          "name": "minter",
          "type": "address"
        },
        {
          "indexed": false,
          "internalType": "uint256",
          "name": "price",
          "type": "uint256"
        },
        {
          "indexed": false,
          "internalType": "uint256",
          "name": "nftID",
          "type": "uint256"
        },
        {
          "indexed": false,
          "internalType": "string",
          "name": "uri",
          "type": "string"
        }
      ],
      "name": "Minted",
      "type": "event"
    },
    {
      "anonymous": false,
      "inputs": [
        {
          "indexed": true,
          "internalType": "address",
          "name": "owner",
          "type": "address"
        },
        {
          "indexed": false,
          "internalType": "uint256",
          "name": "nftID",
          "type": "uint256"
        },
        {
          "indexed": false,
          "internalType": "bool",
          "name": "isListed",
          "type": "bool"
        }
      ],
      "name": "NftListStatus",
      "type": "event"
    },
    {
      "anonymous": false,
      "inputs": [
        {
          "indexed": true,
          "internalType": "address",
          "name": "previousOwner",
          "type": "address"
        },
        {
          "indexed": true,
          "internalType": "address",
          "name": "newOwner",
          "type": "address"
        }
      ],
      "name": "OwnershipTransferred",
      "type": "event"
    },
    {
      "anonymous": false,
      "inputs": [
        {
          "indexed": true,
          "internalType": "address",
          "name": "owner",
          "type": "address"
        },
        {
          "indexed": false,
          "internalType": "uint256",
          "name": "oldPrice",
          "type": "uint256"
        },
        {
          "indexed": false,
          "internalType": "uint256",
          "name": "newPrice",
          "type": "uint256"
        },
        {
          "indexed": false,
          "internalType": "uint256",
          "name": "nftID",
          "type": "uint256"
        }
      ],
      "name": "PriceUpdate",
      "type": "event"
    },
    {
      "anonymous": false,
      "inputs": [
        {
          "indexed": true,
          "internalType": "address",
          "name": "previousOwner",
          "type": "address"
        },
        {
          "indexed": true,
          "internalType": "address",
          "name": "newOwner",
          "type": "address"
        },
        {
          "indexed": false,
          "internalType": "uint256",
          "name": "price",
          "type": "uint256"
        },
        {
          "indexed": false,
          "internalType": "uint256",
          "name": "nftID",
          "type": "uint256"
        },
        {
          "indexed": false,
          "internalType": "string",
          "name": "uri",
          "type": "string"
        }
      ],
      "name": "Purchase",
      "type": "event"
    },
    {
      "anonymous": false,
      "inputs": [
        {
          "indexed": true,
          "internalType": "address",
          "name": "from",
          "type": "address"
        },
        {
          "indexed": true,
          "internalType": "address",
          "name": "to",
          "type": "address"
        },
        {
          "indexed": true,
          "internalType": "uint256",
          "name": "tokenId",
          "type": "uint256"
        }
      ],
      "name": "Transfer",
      "type": "event"
    },
    {
      "inputs": [],
      "name": "_contractOwner",
      "outputs": [
        {
          "internalType": "address payable",
          "name": "",
          "type": "address"
        }
      ],
      "stateMutability": "view",
      "type": "function"
    },
    {
      "inputs": [
        {
          "internalType": "address",
          "name": "to",
          "type": "address"
        },
        {
          "internalType": "uint256",
          "name": "tokenId",
          "type": "uint256"
        }
      ],
      "name": "approve",
      "outputs": [],
      "stateMutability": "nonpayable",
      "type": "function"
    },
    {
      "inputs": [
        {
          "internalType": "address",
          "name": "owner",
          "type": "address"
        }
      ],
      "name": "balanceOf",
      "outputs": [
        {
          "internalType": "uint256",
          "name": "",
          "type": "uint256"
        }
      ],
      "stateMutability": "view",
      "type": "function"
    },
    {
      "inputs": [
        {
          "internalType": "uint256",
          "name": "tokenId",
          "type": "uint256"
        }
      ],
      "name": "getApproved",
      "outputs": [
        {
          "internalType": "address",
          "name": "",
          "type": "address"
        }
      ],
      "stateMutability": "view",
      "type": "function"
    },
    {
      "inputs": [
        {
          "internalType": "address",
          "name": "owner",
          "type": "address"
        },
        {
          "internalType": "address",
          "name": "operator",
          "type": "address"
        }
      ],
      "name": "isApprovedForAll",
      "outputs": [
        {
          "internalType": "bool",
          "name": "",
          "type": "bool"
        }
      ],
      "stateMutability": "view",
      "type": "function"
    },
    {
      "inputs": [
        {
          "internalType": "uint256",
          "name": "",
          "type": "uint256"
        }
      ],
      "name": "listedMap",
      "outputs": [
        {
          "internalType": "bool",
          "name": "",
          "type": "bool"
        }
      ],
      "stateMutability": "view",
      "type": "function"
    },
    {
      "inputs": [],
      "name": "name",
      "outputs": [
        {
          "internalType": "string",
          "name": "",
          "type": "string"
        }
      ],
      "stateMutability": "view",
      "type": "function"
    },
    {
      "inputs": [],
      "name": "owner",
      "outputs": [
        {
          "internalType": "address",
          "name": "",
          "type": "address"
        }
      ],
      "stateMutability": "view",
      "type": "function"
    },
    {
      "inputs": [
        {
          "internalType": "uint256",
          "name": "tokenId",
          "type": "uint256"
        }
      ],
      "name": "ownerOf",
      "outputs": [
        {
          "internalType": "address",
          "name": "",
          "type": "address"
        }
      ],
      "stateMutability": "view",
      "type": "function"
    },
    {
      "inputs": [
        {
          "internalType": "uint256",
          "name": "",
          "type": "uint256"
        }
      ],
      "name": "price",
      "outputs": [
        {
          "internalType": "uint256",
          "name": "",
          "type": "uint256"
        }
      ],
      "stateMutability": "view",
      "type": "function"
    },
    {
      "inputs": [],
      "name": "renounceOwnership",
      "outputs": [],
      "stateMutability": "nonpayable",
      "type": "function"
    },
    {
      "inputs": [
        {
          "internalType": "address",
          "name": "from",
          "type": "address"
        },
        {
          "internalType": "address",
          "name": "to",
          "type": "address"
        },
        {
          "internalType": "uint256",
          "name": "tokenId",
          "type": "uint256"
        }
      ],
      "name": "safeTransferFrom",
      "outputs": [],
      "stateMutability": "nonpayable",
      "type": "function"
    },
    {
      "inputs": [
        {
          "internalType": "address",
          "name": "from",
          "type": "address"
        },
        {
          "internalType": "address",
          "name": "to",
          "type": "address"
        },
        {
          "internalType": "uint256",
          "name": "tokenId",
          "type": "uint256"
        },
        {
          "internalType": "bytes",
          "name": "_data",
          "type": "bytes"
        }
      ],
      "name": "safeTransferFrom",
      "outputs": [],
      "stateMutability": "nonpayable",
      "type": "function"
    },
    {
      "inputs": [
        {
          "internalType": "address",
          "name": "operator",
          "type": "address"
        },
        {
          "internalType": "bool",
          "name": "approved",
          "type": "bool"
        }
      ],
      "name": "setApprovalForAll",
      "outputs": [],
      "stateMutability": "nonpayable",
      "type": "function"
    },
    {
      "inputs": [
        {
          "internalType": "bytes4",
          "name": "interfaceId",
          "type": "bytes4"
        }
      ],
      "name": "supportsInterface",
      "outputs": [
        {
          "internalType": "bool",
          "name": "",
          "type": "bool"
        }
      ],
      "stateMutability": "view",
      "type": "function"
    },
    {
      "inputs": [],
      "name": "symbol",
      "outputs": [
        {
          "internalType": "string",
          "name": "",
          "type": "string"
        }
      ],
      "stateMutability": "view",
      "type": "function"
    },
    {
      "inputs": [
        {
          "internalType": "uint256",
          "name": "index",
          "type": "uint256"
        }
      ],
      "name": "tokenByIndex",
      "outputs": [
        {
          "internalType": "uint256",
          "name": "",
          "type": "uint256"
        }
      ],
      "stateMutability": "view",
      "type": "function"
    },
    {
      "inputs": [
        {
          "internalType": "address",
          "name": "owner",
          "type": "address"
        },
        {
          "internalType": "uint256",
          "name": "index",
          "type": "uint256"
        }
      ],
      "name": "tokenOfOwnerByIndex",
      "outputs": [
        {
          "internalType": "uint256",
          "name": "",
          "type": "uint256"
        }
      ],
      "stateMutability": "view",
      "type": "function"
    },
    {
      "inputs": [],
      "name": "totalSupply",
      "outputs": [
        {
          "internalType": "uint256",
          "name": "",
          "type": "uint256"
        }
      ],
      "stateMutability": "view",
      "type": "function"
    },
    {
      "inputs": [
        {
          "internalType": "address",
          "name": "from",
          "type": "address"
        },
        {
          "internalType": "address",
          "name": "to",
          "type": "address"
        },
        {
          "internalType": "uint256",
          "name": "tokenId",
          "type": "uint256"
        }
      ],
      "name": "transferFrom",
      "outputs": [],
      "stateMutability": "nonpayable",
      "type": "function"
    },
    {
      "inputs": [
        {
          "internalType": "address",
          "name": "newOwner",
          "type": "address"
        }
      ],
      "name": "transferOwnership",
      "outputs": [],
      "stateMutability": "nonpayable",
      "type": "function"
    },
    {
      "inputs": [
        {
          "internalType": "uint256",
          "name": "tokenId",
          "type": "uint256"
        }
      ],
      "name": "tokenURI",
      "outputs": [
        {
          "internalType": "string",
          "name": "",
          "type": "string"
        }
      ],
      "stateMutability": "view",
      "type": "function"
    },
    {
      "inputs": [
        {
          "internalType": "string",
          "name": "_tokenURI",
          "type": "string"
        },
        {
          "internalType": "address",
          "name": "_toAddress",
          "type": "address"
        },
        {
          "internalType": "uint256",
          "name": "_price",
          "type": "uint256"
        }
      ],
      "name": "mint",
      "outputs": [
        {
          "internalType": "uint256",
          "name": "",
          "type": "uint256"
        }
      ],
      "stateMutability": "nonpayable",
      "type": "function"
    },
    {
      "inputs": [
        {
          "internalType": "uint256",
          "name": "_id",
          "type": "uint256"
        }
      ],
      "name": "buy",
      "outputs": [],
      "stateMutability": "payable",
      "type": "function"
    },
    {
      "inputs": [
        {
          "internalType": "uint256",
          "name": "_tokenId",
          "type": "uint256"
        },
        {
          "internalType": "uint256",
          "name": "_price",
          "type": "uint256"
        }
      ],
      "name": "updatePrice",
      "outputs": [
        {
          "internalType": "bool",
          "name": "",
          "type": "bool"
        }
      ],
      "stateMutability": "nonpayable",
      "type": "function"
    },
    {
      "inputs": [
        {
          "internalType": "uint256",
          "name": "_tokenId",
          "type": "uint256"
        },
        {
          "internalType": "bool",
          "name": "shouldBeListed",
          "type": "bool"
        }
      ],
      "name": "updateListingStatus",
      "outputs": [
        {
          "internalType": "bool",
          "name": "",
          "type": "bool"
        }
      ],
      "stateMutability": "nonpayable",
      "type": "function"
    }
  ],
  "bytecode": "0x60806040523480156200001157600080fd5b506040518060400160405280600881526020017f426f6643204e46540000000000000000000000000000000000000000000000008152506040518060400160405280600781526020017f424f46434e465400000000000000000000000000000000000000000000000000815250816000908051906020019062000096929190620001e7565b508060019080519060200190620000af929190620001e7565b505050620000d2620000c66200011960201b60201c565b6200012160201b60201c565b33600b60006101000a81548173ffffffffffffffffffffffffffffffffffffffff021916908373ffffffffffffffffffffffffffffffffffffffff160217905550620002fc565b600033905090565b6000600a60009054906101000a900473ffffffffffffffffffffffffffffffffffffffff16905081600a60006101000a81548173ffffffffffffffffffffffffffffffffffffffff021916908373ffffffffffffffffffffffffffffffffffffffff1602179055508173ffffffffffffffffffffffffffffffffffffffff168173ffffffffffffffffffffffffffffffffffffffff167f8be0079c531659141344cd1fd0a4f28419497f9722a3daafe3b4186f6b6457e060405160405180910390a35050565b828054620001f590620002c6565b90600052602060002090601f01602090048101928262000219576000855562000265565b82601f106200023457805160ff191683800117855562000265565b8280016001018555821562000265579182015b828111156200026457825182559160200191906001019062000247565b5b50905062000274919062000278565b5090565b5b808211156200029357600081600090555060010162000279565b5090565b7f4e487b7100000000000000000000000000000000000000000000000000000000600052602260045260246000fd5b60006002820490506001821680620002df57607f821691505b60208210811415620002f657620002f562000297565b5b50919050565b614560806200030c6000396000f3fe6080604052600436106101815760003560e01c8063715018a6116100d1578063a22cb4651161008a578063c87b56dd11610064578063c87b56dd146105e0578063d96a094a1461061d578063e985e9c514610639578063f2fde38b1461067657610181565b8063a22cb46514610551578063b88d4fde1461057a578063bc8ba28f146105a357610181565b8063715018a61461042d5780637e8816b91461044457806382367b2d146104815780638da5cb5b146104be57806395d89b41146104e957806398214bcb1461051457610181565b806326a49e371161013e57806342842e0e1161011857806342842e0e1461034d5780634f6ccce7146103765780636352211e146103b357806370a08231146103f057610181565b806326a49e37146102a85780632bb3b114146102e55780632f745c591461031057610181565b806301ffc9a71461018657806306fdde03146101c3578063081812fc146101ee578063095ea7b31461022b57806318160ddd1461025457806323b872dd1461027f575b600080fd5b34801561019257600080fd5b506101ad60048036038101906101a89190612c8e565b61069f565b6040516101ba9190612cd6565b60405180910390f35b3480156101cf57600080fd5b506101d8610719565b6040516101e59190612d8a565b60405180910390f35b3480156101fa57600080fd5b5061021560048036038101906102109190612de2565b6107ab565b6040516102229190612e50565b60405180910390f35b34801561023757600080fd5b50610252600480360381019061024d9190612e97565b610830565b005b34801561026057600080fd5b50610269610948565b6040516102769190612ee6565b60405180910390f35b34801561028b57600080fd5b506102a660048036038101906102a19190612f01565b610955565b005b3480156102b457600080fd5b506102cf60048036038101906102ca9190612de2565b6109b5565b6040516102dc9190612ee6565b60405180910390f35b3480156102f157600080fd5b506102fa6109cd565b6040516103079190612f75565b60405180910390f35b34801561031c57600080fd5b5061033760048036038101906103329190612e97565b6109f3565b6040516103449190612ee6565b60405180910390f35b34801561035957600080fd5b50610374600480360381019061036f9190612f01565b610a98565b005b34801561038257600080fd5b5061039d60048036038101906103989190612de2565b610ab8565b6040516103aa9190612ee6565b60405180910390f35b3480156103bf57600080fd5b506103da60048036038101906103d59190612de2565b610b29565b6040516103e79190612e50565b60405180910390f35b3480156103fc57600080fd5b5061041760048036038101906104129190612f90565b610bdb565b6040516104249190612ee6565b60405180910390f35b34801561043957600080fd5b50610442610c93565b005b34801561045057600080fd5b5061046b600480360381019061046691906130f2565b610d1b565b6040516104789190612ee6565b60405180910390f35b34801561048d57600080fd5b506104a860048036038101906104a39190613161565b610df0565b6040516104b59190612cd6565b60405180910390f35b3480156104ca57600080fd5b506104d3610ef4565b6040516104e09190612e50565b60405180910390f35b3480156104f557600080fd5b506104fe610f1e565b60405161050b9190612d8a565b60405180910390f35b34801561052057600080fd5b5061053b600480360381019061053691906131cd565b610fb0565b6040516105489190612cd6565b60405180910390f35b34801561055d57600080fd5b506105786004803603810190610573919061320d565b6110ad565b005b34801561058657600080fd5b506105a1600480360381019061059c91906132ee565b61122e565b005b3480156105af57600080fd5b506105ca60048036038101906105c59190612de2565b611290565b6040516105d79190612cd6565b60405180910390f35b3480156105ec57600080fd5b5061060760048036038101906106029190612de2565b6112b0565b6040516106149190612d8a565b60405180910390f35b61063760048036038101906106329190612de2565b611402565b005b34801561064557600080fd5b50610660600480360381019061065b9190613371565b6114af565b60405161066d9190612cd6565b60405180910390f35b34801561068257600080fd5b5061069d60048036038101906106989190612f90565b611543565b005b60007f780e9d63000000000000000000000000000000000000000000000000000000007bffffffffffffffffffffffffffffffffffffffffffffffffffffffff1916827bffffffffffffffffffffffffffffffffffffffffffffffffffffffff1916148061071257506107118261163b565b5b9050919050565b606060008054610728906133e0565b80601f0160208091040260200160405190810160405280929190818152602001828054610754906133e0565b80156107a15780601f10610776576101008083540402835291602001916107a1565b820191906000526020600020905b81548152906001019060200180831161078457829003601f168201915b5050505050905090565b60006107b68261171d565b6107f5576040517f08c379a00000000000000000000000000000000000000000000000000000000081526004016107ec90613484565b60405180910390fd5b6004600083815260200190815260200160002060009054906101000a900473ffffffffffffffffffffffffffffffffffffffff169050919050565b600061083b82610b29565b90508073ffffffffffffffffffffffffffffffffffffffff168373ffffffffffffffffffffffffffffffffffffffff1614156108ac576040517f08c379a00000000000000000000000000000000000000000000000000000000081526004016108a390613516565b60405180910390fd5b8073ffffffffffffffffffffffffffffffffffffffff166108cb611789565b73ffffffffffffffffffffffffffffffffffffffff1614806108fa57506108f9816108f4611789565b6114af565b5b610939576040517f08c379a0000000000000000000000000000000000000000000000000000000008152600401610930906135a8565b60405180910390fd5b6109438383611791565b505050565b6000600880549050905090565b610966610960611789565b8261184a565b6109a5576040517f08c379a000000000000000000000000000000000000000000000000000000000815260040161099c9061363a565b60405180910390fd5b6109b0838383611928565b505050565b600c6020528060005260406000206000915090505481565b600b60009054906101000a900473ffffffffffffffffffffffffffffffffffffffff1681565b60006109fe83610bdb565b8210610a3f576040517f08c379a0000000000000000000000000000000000000000000000000000000008152600401610a36906136cc565b60405180910390fd5b600660008473ffffffffffffffffffffffffffffffffffffffff1673ffffffffffffffffffffffffffffffffffffffff168152602001908152602001600020600083815260200190815260200160002054905092915050565b610ab38383836040518060200160405280600081525061122e565b505050565b6000610ac2610948565b8210610b03576040517f08c379a0000000000000000000000000000000000000000000000000000000008152600401610afa9061375e565b60405180910390fd5b60088281548110610b1757610b1661377e565b5b90600052602060002001549050919050565b6000806002600084815260200190815260200160002060009054906101000a900473ffffffffffffffffffffffffffffffffffffffff169050600073ffffffffffffffffffffffffffffffffffffffff168173ffffffffffffffffffffffffffffffffffffffff161415610bd2576040517f08c379a0000000000000000000000000000000000000000000000000000000008152600401610bc99061381f565b60405180910390fd5b80915050919050565b60008073ffffffffffffffffffffffffffffffffffffffff168273ffffffffffffffffffffffffffffffffffffffff161415610c4c576040517f08c379a0000000000000000000000000000000000000000000000000000000008152600401610c43906138b1565b60405180910390fd5b600360008373ffffffffffffffffffffffffffffffffffffffff1673ffffffffffffffffffffffffffffffffffffffff168152602001908152602001600020549050919050565b610c9b611789565b73ffffffffffffffffffffffffffffffffffffffff16610cb9610ef4565b73ffffffffffffffffffffffffffffffffffffffff1614610d0f576040517f08c379a0000000000000000000000000000000000000000000000000000000008152600401610d069061391d565b60405180910390fd5b610d196000611b84565b565b600080610d396001610d2b610948565b611c4a90919063ffffffff16565b905082600c6000838152602001908152602001600020819055506001600d600083815260200190815260200160002060006101000a81548160ff021916908315150217905550610d898482611c60565b610d938186611c7e565b8373ffffffffffffffffffffffffffffffffffffffff167ff2cb5e52049d127ad1c335f1cc25f2fdbc911bec1beb2611f4c1e8b1c274d4b4848388604051610ddd9392919061393d565b60405180910390a2809150509392505050565b600080600c6000858152602001908152602001600020549050610e1284610b29565b73ffffffffffffffffffffffffffffffffffffffff163373ffffffffffffffffffffffffffffffffffffffff1614610e7f576040517f08c379a0000000000000000000000000000000000000000000000000000000008152600401610e76906139c7565b60405180910390fd5b82600c6000868152602001908152602001600020819055503373ffffffffffffffffffffffffffffffffffffffff167f8647dab5101cbe18afb171756e9753802f9d66725bf2346b079b8b1a275e0116828587604051610ee1939291906139e7565b60405180910390a2600191505092915050565b6000600a60009054906101000a900473ffffffffffffffffffffffffffffffffffffffff16905090565b606060018054610f2d906133e0565b80601f0160208091040260200160405190810160405280929190818152602001828054610f59906133e0565b8015610fa65780601f10610f7b57610100808354040283529160200191610fa6565b820191906000526020600020905b815481529060010190602001808311610f8957829003601f168201915b5050505050905090565b6000610fbb83610b29565b73ffffffffffffffffffffffffffffffffffffffff163373ffffffffffffffffffffffffffffffffffffffff1614611028576040517f08c379a000000000000000000000000000000000000000000000000000000000815260040161101f906139c7565b60405180910390fd5b81600d600085815260200190815260200160002060006101000a81548160ff0219169083151502179055503373ffffffffffffffffffffffffffffffffffffffff167f3fd63d9ca8dc693a1b9911e664951294721009a4f6239c862d6719a160a1edfc848460405161109b929190613a1e565b60405180910390a26001905092915050565b6110b5611789565b73ffffffffffffffffffffffffffffffffffffffff168273ffffffffffffffffffffffffffffffffffffffff161415611123576040517f08c379a000000000000000000000000000000000000000000000000000000000815260040161111a90613a93565b60405180910390fd5b8060056000611130611789565b73ffffffffffffffffffffffffffffffffffffffff1673ffffffffffffffffffffffffffffffffffffffff16815260200190815260200160002060008473ffffffffffffffffffffffffffffffffffffffff1673ffffffffffffffffffffffffffffffffffffffff16815260200190815260200160002060006101000a81548160ff0219169083151502179055508173ffffffffffffffffffffffffffffffffffffffff166111dd611789565b73ffffffffffffffffffffffffffffffffffffffff167f17307eab39ab6107e8899845ad3d59bd9653f200f220920489ca2b5937696c31836040516112229190612cd6565b60405180910390a35050565b61123f611239611789565b8361184a565b61127e576040517f08c379a00000000000000000000000000000000000000000000000000000000081526004016112759061363a565b60405180910390fd5b61128a84848484611cf2565b50505050565b600d6020528060005260406000206000915054906101000a900460ff1681565b60606112bb8261171d565b6112fa576040517f08c379a00000000000000000000000000000000000000000000000000000000081526004016112f190613b25565b60405180910390fd5b6000600e6000848152602001908152602001600020805461131a906133e0565b80601f0160208091040260200160405190810160405280929190818152602001828054611346906133e0565b80156113935780601f1061136857610100808354040283529160200191611393565b820191906000526020600020905b81548152906001019060200180831161137657829003601f168201915b5050505050905060006113a4611d4e565b90506000815114156113ba5781925050506113fd565b6000825111156113ef5780826040516020016113d7929190613b81565b604051602081830303815290604052925050506113fd565b6113f884611d65565b925050505b919050565b61140b81611e0c565b600061141682610b29565b9050600033905061142683611f8a565b8073ffffffffffffffffffffffffffffffffffffffff168273ffffffffffffffffffffffffffffffffffffffff167fef258f47a33a1cba99d81ea828f234ff5d6cb31034c0f79ecb5198f8c6d118f6600c60008781526020019081526020016000205486611493886112b0565b6040516114a29392919061393d565b60405180910390a3505050565b6000600560008473ffffffffffffffffffffffffffffffffffffffff1673ffffffffffffffffffffffffffffffffffffffff16815260200190815260200160002060008373ffffffffffffffffffffffffffffffffffffffff1673ffffffffffffffffffffffffffffffffffffffff16815260200190815260200160002060009054906101000a900460ff16905092915050565b61154b611789565b73ffffffffffffffffffffffffffffffffffffffff16611569610ef4565b73ffffffffffffffffffffffffffffffffffffffff16146115bf576040517f08c379a00000000000000000000000000000000000000000000000000000000081526004016115b69061391d565b60405180910390fd5b600073ffffffffffffffffffffffffffffffffffffffff168173ffffffffffffffffffffffffffffffffffffffff16141561162f576040517f08c379a000000000000000000000000000000000000000000000000000000000815260040161162690613c17565b60405180910390fd5b61163881611b84565b50565b60007f80ac58cd000000000000000000000000000000000000000000000000000000007bffffffffffffffffffffffffffffffffffffffffffffffffffffffff1916827bffffffffffffffffffffffffffffffffffffffffffffffffffffffff1916148061170657507f5b5e139f000000000000000000000000000000000000000000000000000000007bffffffffffffffffffffffffffffffffffffffffffffffffffffffff1916827bffffffffffffffffffffffffffffffffffffffffffffffffffffffff1916145b80611716575061171582612180565b5b9050919050565b60008073ffffffffffffffffffffffffffffffffffffffff166002600084815260200190815260200160002060009054906101000a900473ffffffffffffffffffffffffffffffffffffffff1673ffffffffffffffffffffffffffffffffffffffff1614159050919050565b600033905090565b816004600083815260200190815260200160002060006101000a81548173ffffffffffffffffffffffffffffffffffffffff021916908373ffffffffffffffffffffffffffffffffffffffff160217905550808273ffffffffffffffffffffffffffffffffffffffff1661180483610b29565b73ffffffffffffffffffffffffffffffffffffffff167f8c5be1e5ebec7d5bd14f71427d1e84f3dd0314c0f7b2291e5b200ac8c7c3b92560405160405180910390a45050565b60006118558261171d565b611894576040517f08c379a000000000000000000000000000000000000000000000000000000000815260040161188b90613ca9565b60405180910390fd5b600061189f83610b29565b90508073ffffffffffffffffffffffffffffffffffffffff168473ffffffffffffffffffffffffffffffffffffffff16148061190e57508373ffffffffffffffffffffffffffffffffffffffff166118f6846107ab565b73ffffffffffffffffffffffffffffffffffffffff16145b8061191f575061191e81856114af565b5b91505092915050565b8273ffffffffffffffffffffffffffffffffffffffff1661194882610b29565b73ffffffffffffffffffffffffffffffffffffffff161461199e576040517f08c379a000000000000000000000000000000000000000000000000000000000815260040161199590613d3b565b60405180910390fd5b600073ffffffffffffffffffffffffffffffffffffffff168273ffffffffffffffffffffffffffffffffffffffff161415611a0e576040517f08c379a0000000000000000000000000000000000000000000000000000000008152600401611a0590613dcd565b60405180910390fd5b611a198383836121ea565b611a24600082611791565b6001600360008573ffffffffffffffffffffffffffffffffffffffff1673ffffffffffffffffffffffffffffffffffffffff1681526020019081526020016000206000828254611a749190613e1c565b925050819055506001600360008473ffffffffffffffffffffffffffffffffffffffff1673ffffffffffffffffffffffffffffffffffffffff1681526020019081526020016000206000828254611acb9190613e50565b92505081905550816002600083815260200190815260200160002060006101000a81548173ffffffffffffffffffffffffffffffffffffffff021916908373ffffffffffffffffffffffffffffffffffffffff160217905550808273ffffffffffffffffffffffffffffffffffffffff168473ffffffffffffffffffffffffffffffffffffffff167fddf252ad1be2c89b69c2b068fc378daa952ba7f163c4a11628f55a4df523b3ef60405160405180910390a4505050565b6000600a60009054906101000a900473ffffffffffffffffffffffffffffffffffffffff16905081600a60006101000a81548173ffffffffffffffffffffffffffffffffffffffff021916908373ffffffffffffffffffffffffffffffffffffffff1602179055508173ffffffffffffffffffffffffffffffffffffffff168173ffffffffffffffffffffffffffffffffffffffff167f8be0079c531659141344cd1fd0a4f28419497f9722a3daafe3b4186f6b6457e060405160405180910390a35050565b60008183611c589190613e50565b905092915050565b611c7a8282604051806020016040528060008152506122fe565b5050565b611c878261171d565b611cc6576040517f08c379a0000000000000000000000000000000000000000000000000000000008152600401611cbd90613f18565b60405180910390fd5b80600e60008481526020019081526020016000209080519060200190611ced929190612b7f565b505050565b611cfd848484611928565b611d0984848484612359565b611d48576040517f08c379a0000000000000000000000000000000000000000000000000000000008152600401611d3f90613faa565b60405180910390fd5b50505050565b606060405180602001604052806000815250905090565b6060611d708261171d565b611daf576040517f08c379a0000000000000000000000000000000000000000000000000000000008152600401611da69061403c565b60405180910390fd5b6000611db9611d4e565b90506000815111611dd95760405180602001604052806000815250611e04565b80611de3846124f0565b604051602001611df4929190613b81565b6040516020818303038152906040525b915050919050565b6000600d600083815260200190815260200160002060009054906101000a900460ff169050611e3a8261171d565b611e79576040517f08c379a0000000000000000000000000000000000000000000000000000000008152600401611e70906140a8565b60405180910390fd5b80611eb9576040517f08c379a0000000000000000000000000000000000000000000000000000000008152600401611eb090614114565b60405180910390fd5b600c600083815260200190815260200160002054341015611f0f576040517f08c379a0000000000000000000000000000000000000000000000000000000008152600401611f0690614180565b60405180910390fd5b611f1882610b29565b73ffffffffffffffffffffffffffffffffffffffff163373ffffffffffffffffffffffffffffffffffffffff161415611f86576040517f08c379a0000000000000000000000000000000000000000000000000000000008152600401611f7d906141ec565b60405180910390fd5b5050565b60003390506000611f9a83610b29565b9050611fa7818385611928565b6000600190506000611fe8611fc660648461265190919063ffffffff16565b600c60008881526020019081526020016000205461266790919063ffffffff16565b9050600061201282600c60008981526020019081526020016000205461267d90919063ffffffff16565b90508373ffffffffffffffffffffffffffffffffffffffff166108fc829081150290604051600060405180830381858888f1935050505015801561205a573d6000803e3d6000fd5b50600b60009054906101000a900473ffffffffffffffffffffffffffffffffffffffff1673ffffffffffffffffffffffffffffffffffffffff166108fc839081150290604051600060405180830381858888f193505050501580156120c3573d6000803e3d6000fd5b50600c60008781526020019081526020016000205434111561214c578473ffffffffffffffffffffffffffffffffffffffff166108fc61211f600c60008a8152602001908152602001600020543461267d90919063ffffffff16565b9081150290604051600060405180830381858888f1935050505015801561214a573d6000803e3d6000fd5b505b6000600d600088815260200190815260200160002060006101000a81548160ff021916908315150217905550505050505050565b60007f01ffc9a7000000000000000000000000000000000000000000000000000000007bffffffffffffffffffffffffffffffffffffffffffffffffffffffff1916827bffffffffffffffffffffffffffffffffffffffffffffffffffffffff1916149050919050565b6121f5838383612693565b600073ffffffffffffffffffffffffffffffffffffffff168373ffffffffffffffffffffffffffffffffffffffff1614156122385761223381612698565b612277565b8173ffffffffffffffffffffffffffffffffffffffff168373ffffffffffffffffffffffffffffffffffffffff16146122765761227583826126e1565b5b5b600073ffffffffffffffffffffffffffffffffffffffff168273ffffffffffffffffffffffffffffffffffffffff1614156122ba576122b58161284e565b6122f9565b8273ffffffffffffffffffffffffffffffffffffffff168273ffffffffffffffffffffffffffffffffffffffff16146122f8576122f7828261291f565b5b5b505050565b612308838361299e565b6123156000848484612359565b612354576040517f08c379a000000000000000000000000000000000000000000000000000000000815260040161234b90613faa565b60405180910390fd5b505050565b600061237a8473ffffffffffffffffffffffffffffffffffffffff16612b6c565b156124e3578373ffffffffffffffffffffffffffffffffffffffff1663150b7a026123a3611789565b8786866040518563ffffffff1660e01b81526004016123c59493929190614261565b602060405180830381600087803b1580156123df57600080fd5b505af192505050801561241057506040513d601f19601f8201168201806040525081019061240d91906142c2565b60015b612493573d8060008114612440576040519150601f19603f3d011682016040523d82523d6000602084013e612445565b606091505b5060008151141561248b576040517f08c379a000000000000000000000000000000000000000000000000000000000815260040161248290613faa565b60405180910390fd5b805181602001fd5b63150b7a0260e01b7bffffffffffffffffffffffffffffffffffffffffffffffffffffffff1916817bffffffffffffffffffffffffffffffffffffffffffffffffffffffff1916149150506124e8565b600190505b949350505050565b60606000821415612538576040518060400160405280600181526020017f3000000000000000000000000000000000000000000000000000000000000000815250905061264c565b600082905060005b6000821461256a578080612553906142ef565b915050600a826125639190614367565b9150612540565b60008167ffffffffffffffff81111561258657612585612fc7565b5b6040519080825280601f01601f1916602001820160405280156125b85781602001600182028036833780820191505090505b5090505b60008514612645576001826125d19190613e1c565b9150600a856125e09190614398565b60306125ec9190613e50565b60f81b8183815181106126025761260161377e565b5b60200101907effffffffffffffffffffffffffffffffffffffffffffffffffffffffffffff1916908160001a905350600a8561263e9190614367565b94506125bc565b8093505050505b919050565b6000818361265f9190614367565b905092915050565b6000818361267591906143c9565b905092915050565b6000818361268b9190613e1c565b905092915050565b505050565b6008805490506009600083815260200190815260200160002081905550600881908060018154018082558091505060019003906000526020600020016000909190919091505550565b600060016126ee84610bdb565b6126f89190613e1c565b90506000600760008481526020019081526020016000205490508181146127dd576000600660008673ffffffffffffffffffffffffffffffffffffffff1673ffffffffffffffffffffffffffffffffffffffff168152602001908152602001600020600084815260200190815260200160002054905080600660008773ffffffffffffffffffffffffffffffffffffffff1673ffffffffffffffffffffffffffffffffffffffff168152602001908152602001600020600084815260200190815260200160002081905550816007600083815260200190815260200160002081905550505b6007600084815260200190815260200160002060009055600660008573ffffffffffffffffffffffffffffffffffffffff1673ffffffffffffffffffffffffffffffffffffffff16815260200190815260200160002060008381526020019081526020016000206000905550505050565b600060016008805490506128629190613e1c565b90506000600960008481526020019081526020016000205490506000600883815481106128925761289161377e565b5b9060005260206000200154905080600883815481106128b4576128b361377e565b5b90600052602060002001819055508160096000838152602001908152602001600020819055506009600085815260200190815260200160002060009055600880548061290357612902614423565b5b6001900381819060005260206000200160009055905550505050565b600061292a83610bdb565b905081600660008573ffffffffffffffffffffffffffffffffffffffff1673ffffffffffffffffffffffffffffffffffffffff168152602001908152602001600020600083815260200190815260200160002081905550806007600084815260200190815260200160002081905550505050565b600073ffffffffffffffffffffffffffffffffffffffff168273ffffffffffffffffffffffffffffffffffffffff161415612a0e576040517f08c379a0000000000000000000000000000000000000000000000000000000008152600401612a059061449e565b60405180910390fd5b612a178161171d565b15612a57576040517f08c379a0000000000000000000000000000000000000000000000000000000008152600401612a4e9061450a565b60405180910390fd5b612a63600083836121ea565b6001600360008473ffffffffffffffffffffffffffffffffffffffff1673ffffffffffffffffffffffffffffffffffffffff1681526020019081526020016000206000828254612ab39190613e50565b92505081905550816002600083815260200190815260200160002060006101000a81548173ffffffffffffffffffffffffffffffffffffffff021916908373ffffffffffffffffffffffffffffffffffffffff160217905550808273ffffffffffffffffffffffffffffffffffffffff16600073ffffffffffffffffffffffffffffffffffffffff167fddf252ad1be2c89b69c2b068fc378daa952ba7f163c4a11628f55a4df523b3ef60405160405180910390a45050565b600080823b905060008111915050919050565b828054612b8b906133e0565b90600052602060002090601f016020900481019282612bad5760008555612bf4565b82601f10612bc657805160ff1916838001178555612bf4565b82800160010185558215612bf4579182015b82811115612bf3578251825591602001919060010190612bd8565b5b509050612c019190612c05565b5090565b5b80821115612c1e576000816000905550600101612c06565b5090565b6000604051905090565b600080fd5b600080fd5b60007fffffffff0000000000000000000000000000000000000000000000000000000082169050919050565b612c6b81612c36565b8114612c7657600080fd5b50565b600081359050612c8881612c62565b92915050565b600060208284031215612ca457612ca3612c2c565b5b6000612cb284828501612c79565b91505092915050565b60008115159050919050565b612cd081612cbb565b82525050565b6000602082019050612ceb6000830184612cc7565b92915050565b600081519050919050565b600082825260208201905092915050565b60005b83811015612d2b578082015181840152602081019050612d10565b83811115612d3a576000848401525b50505050565b6000601f19601f8301169050919050565b6000612d5c82612cf1565b612d668185612cfc565b9350612d76818560208601612d0d565b612d7f81612d40565b840191505092915050565b60006020820190508181036000830152612da48184612d51565b905092915050565b6000819050919050565b612dbf81612dac565b8114612dca57600080fd5b50565b600081359050612ddc81612db6565b92915050565b600060208284031215612df857612df7612c2c565b5b6000612e0684828501612dcd565b91505092915050565b600073ffffffffffffffffffffffffffffffffffffffff82169050919050565b6000612e3a82612e0f565b9050919050565b612e4a81612e2f565b82525050565b6000602082019050612e656000830184612e41565b92915050565b612e7481612e2f565b8114612e7f57600080fd5b50565b600081359050612e9181612e6b565b92915050565b60008060408385031215612eae57612ead612c2c565b5b6000612ebc85828601612e82565b9250506020612ecd85828601612dcd565b9150509250929050565b612ee081612dac565b82525050565b6000602082019050612efb6000830184612ed7565b92915050565b600080600060608486031215612f1a57612f19612c2c565b5b6000612f2886828701612e82565b9350506020612f3986828701612e82565b9250506040612f4a86828701612dcd565b9150509250925092565b6000612f5f82612e0f565b9050919050565b612f6f81612f54565b82525050565b6000602082019050612f8a6000830184612f66565b92915050565b600060208284031215612fa657612fa5612c2c565b5b6000612fb484828501612e82565b91505092915050565b600080fd5b600080fd5b7f4e487b7100000000000000000000000000000000000000000000000000000000600052604160045260246000fd5b612fff82612d40565b810181811067ffffffffffffffff8211171561301e5761301d612fc7565b5b80604052505050565b6000613031612c22565b905061303d8282612ff6565b919050565b600067ffffffffffffffff82111561305d5761305c612fc7565b5b61306682612d40565b9050602081019050919050565b82818337600083830152505050565b600061309561309084613042565b613027565b9050828152602081018484840111156130b1576130b0612fc2565b5b6130bc848285613073565b509392505050565b600082601f8301126130d9576130d8612fbd565b5b81356130e9848260208601613082565b91505092915050565b60008060006060848603121561310b5761310a612c2c565b5b600084013567ffffffffffffffff81111561312957613128612c31565b5b613135868287016130c4565b935050602061314686828701612e82565b925050604061315786828701612dcd565b9150509250925092565b6000806040838503121561317857613177612c2c565b5b600061318685828601612dcd565b925050602061319785828601612dcd565b9150509250929050565b6131aa81612cbb565b81146131b557600080fd5b50565b6000813590506131c7816131a1565b92915050565b600080604083850312156131e4576131e3612c2c565b5b60006131f285828601612dcd565b9250506020613203858286016131b8565b9150509250929050565b6000806040838503121561322457613223612c2c565b5b600061323285828601612e82565b9250506020613243858286016131b8565b9150509250929050565b600067ffffffffffffffff82111561326857613267612fc7565b5b61327182612d40565b9050602081019050919050565b600061329161328c8461324d565b613027565b9050828152602081018484840111156132ad576132ac612fc2565b5b6132b8848285613073565b509392505050565b600082601f8301126132d5576132d4612fbd565b5b81356132e584826020860161327e565b91505092915050565b6000806000806080858703121561330857613307612c2c565b5b600061331687828801612e82565b945050602061332787828801612e82565b935050604061333887828801612dcd565b925050606085013567ffffffffffffffff81111561335957613358612c31565b5b613365878288016132c0565b91505092959194509250565b6000806040838503121561338857613387612c2c565b5b600061339685828601612e82565b92505060206133a785828601612e82565b9150509250929050565b7f4e487b7100000000000000000000000000000000000000000000000000000000600052602260045260246000fd5b600060028204905060018216806133f857607f821691505b6020821081141561340c5761340b6133b1565b5b50919050565b7f4552433732313a20617070726f76656420717565727920666f72206e6f6e657860008201527f697374656e7420746f6b656e0000000000000000000000000000000000000000602082015250565b600061346e602c83612cfc565b915061347982613412565b604082019050919050565b6000602082019050818103600083015261349d81613461565b9050919050565b7f4552433732313a20617070726f76616c20746f2063757272656e74206f776e6560008201527f7200000000000000000000000000000000000000000000000000000000000000602082015250565b6000613500602183612cfc565b915061350b826134a4565b604082019050919050565b6000602082019050818103600083015261352f816134f3565b9050919050565b7f4552433732313a20617070726f76652063616c6c6572206973206e6f74206f7760008201527f6e6572206e6f7220617070726f76656420666f7220616c6c0000000000000000602082015250565b6000613592603883612cfc565b915061359d82613536565b604082019050919050565b600060208201905081810360008301526135c181613585565b9050919050565b7f4552433732313a207472616e736665722063616c6c6572206973206e6f74206f60008201527f776e6572206e6f7220617070726f766564000000000000000000000000000000602082015250565b6000613624603183612cfc565b915061362f826135c8565b604082019050919050565b6000602082019050818103600083015261365381613617565b9050919050565b7f455243373231456e756d657261626c653a206f776e657220696e646578206f7560008201527f74206f6620626f756e6473000000000000000000000000000000000000000000602082015250565b60006136b6602b83612cfc565b91506136c18261365a565b604082019050919050565b600060208201905081810360008301526136e5816136a9565b9050919050565b7f455243373231456e756d657261626c653a20676c6f62616c20696e646578206f60008201527f7574206f6620626f756e64730000000000000000000000000000000000000000602082015250565b6000613748602c83612cfc565b9150613753826136ec565b604082019050919050565b600060208201905081810360008301526137778161373b565b9050919050565b7f4e487b7100000000000000000000000000000000000000000000000000000000600052603260045260246000fd5b7f4552433732313a206f776e657220717565727920666f72206e6f6e657869737460008201527f656e7420746f6b656e0000000000000000000000000000000000000000000000602082015250565b6000613809602983612cfc565b9150613814826137ad565b604082019050919050565b60006020820190508181036000830152613838816137fc565b9050919050565b7f4552433732313a2062616c616e636520717565727920666f7220746865207a6560008201527f726f206164647265737300000000000000000000000000000000000000000000602082015250565b600061389b602a83612cfc565b91506138a68261383f565b604082019050919050565b600060208201905081810360008301526138ca8161388e565b9050919050565b7f4f776e61626c653a2063616c6c6572206973206e6f7420746865206f776e6572600082015250565b6000613907602083612cfc565b9150613912826138d1565b602082019050919050565b60006020820190508181036000830152613936816138fa565b9050919050565b60006060820190506139526000830186612ed7565b61395f6020830185612ed7565b81810360408301526139718184612d51565b9050949350505050565b7f4572726f722c20796f7520617265206e6f7420746865206f776e657200000000600082015250565b60006139b1601c83612cfc565b91506139bc8261397b565b602082019050919050565b600060208201905081810360008301526139e0816139a4565b9050919050565b60006060820190506139fc6000830186612ed7565b613a096020830185612ed7565b613a166040830184612ed7565b949350505050565b6000604082019050613a336000830185612ed7565b613a406020830184612cc7565b9392505050565b7f4552433732313a20617070726f766520746f2063616c6c657200000000000000600082015250565b6000613a7d601983612cfc565b9150613a8882613a47565b602082019050919050565b60006020820190508181036000830152613aac81613a70565b9050919050565b7f45524337323155524953746f726167653a2055524920717565727920666f722060008201527f6e6f6e6578697374656e7420746f6b656e000000000000000000000000000000602082015250565b6000613b0f603183612cfc565b9150613b1a82613ab3565b604082019050919050565b60006020820190508181036000830152613b3e81613b02565b9050919050565b600081905092915050565b6000613b5b82612cf1565b613b658185613b45565b9350613b75818560208601612d0d565b80840191505092915050565b6000613b8d8285613b50565b9150613b998284613b50565b91508190509392505050565b7f4f776e61626c653a206e6577206f776e657220697320746865207a65726f206160008201527f6464726573730000000000000000000000000000000000000000000000000000602082015250565b6000613c01602683612cfc565b9150613c0c82613ba5565b604082019050919050565b60006020820190508181036000830152613c3081613bf4565b9050919050565b7f4552433732313a206f70657261746f7220717565727920666f72206e6f6e657860008201527f697374656e7420746f6b656e0000000000000000000000000000000000000000602082015250565b6000613c93602c83612cfc565b9150613c9e82613c37565b604082019050919050565b60006020820190508181036000830152613cc281613c86565b9050919050565b7f4552433732313a207472616e73666572206f6620746f6b656e2074686174206960008201527f73206e6f74206f776e0000000000000000000000000000000000000000000000602082015250565b6000613d25602983612cfc565b9150613d3082613cc9565b604082019050919050565b60006020820190508181036000830152613d5481613d18565b9050919050565b7f4552433732313a207472616e7366657220746f20746865207a65726f2061646460008201527f7265737300000000000000000000000000000000000000000000000000000000602082015250565b6000613db7602483612cfc565b9150613dc282613d5b565b604082019050919050565b60006020820190508181036000830152613de681613daa565b9050919050565b7f4e487b7100000000000000000000000000000000000000000000000000000000600052601160045260246000fd5b6000613e2782612dac565b9150613e3283612dac565b925082821015613e4557613e44613ded565b5b828203905092915050565b6000613e5b82612dac565b9150613e6683612dac565b9250827fffffffffffffffffffffffffffffffffffffffffffffffffffffffffffffffff03821115613e9b57613e9a613ded565b5b828201905092915050565b7f45524337323155524953746f726167653a2055524920736574206f66206e6f6e60008201527f6578697374656e7420746f6b656e000000000000000000000000000000000000602082015250565b6000613f02602e83612cfc565b9150613f0d82613ea6565b604082019050919050565b60006020820190508181036000830152613f3181613ef5565b9050919050565b7f4552433732313a207472616e7366657220746f206e6f6e20455243373231526560008201527f63656976657220696d706c656d656e7465720000000000000000000000000000602082015250565b6000613f94603283612cfc565b9150613f9f82613f38565b604082019050919050565b60006020820190508181036000830152613fc381613f87565b9050919050565b7f4552433732314d657461646174613a2055524920717565727920666f72206e6f60008201527f6e6578697374656e7420746f6b656e0000000000000000000000000000000000602082015250565b6000614026602f83612cfc565b915061403182613fca565b604082019050919050565b6000602082019050818103600083015261405581614019565b9050919050565b7f4572726f722c2077726f6e6720746f6b656e4964000000000000000000000000600082015250565b6000614092601483612cfc565b915061409d8261405c565b602082019050919050565b600060208201905081810360008301526140c181614085565b9050919050565b7f4974656d206e6f74206c69737465642063757272656e746c7900000000000000600082015250565b60006140fe601983612cfc565b9150614109826140c8565b602082019050919050565b6000602082019050818103600083015261412d816140f1565b9050919050565b7f4572726f722c2074686520616d6f756e74206973206c6f776572000000000000600082015250565b600061416a601a83612cfc565b915061417582614134565b602082019050919050565b600060208201905081810360008301526141998161415d565b9050919050565b7f43616e206e6f7420627579207768617420796f75206f776e0000000000000000600082015250565b60006141d6601883612cfc565b91506141e1826141a0565b602082019050919050565b60006020820190508181036000830152614205816141c9565b9050919050565b600081519050919050565b600082825260208201905092915050565b60006142338261420c565b61423d8185614217565b935061424d818560208601612d0d565b61425681612d40565b840191505092915050565b60006080820190506142766000830187612e41565b6142836020830186612e41565b6142906040830185612ed7565b81810360608301526142a28184614228565b905095945050505050565b6000815190506142bc81612c62565b92915050565b6000602082840312156142d8576142d7612c2c565b5b60006142e6848285016142ad565b91505092915050565b60006142fa82612dac565b91507fffffffffffffffffffffffffffffffffffffffffffffffffffffffffffffffff82141561432d5761432c613ded565b5b600182019050919050565b7f4e487b7100000000000000000000000000000000000000000000000000000000600052601260045260246000fd5b600061437282612dac565b915061437d83612dac565b92508261438d5761438c614338565b5b828204905092915050565b60006143a382612dac565b91506143ae83612dac565b9250826143be576143bd614338565b5b828206905092915050565b60006143d482612dac565b91506143df83612dac565b9250817fffffffffffffffffffffffffffffffffffffffffffffffffffffffffffffffff048311821515161561441857614417613ded565b5b828202905092915050565b7f4e487b7100000000000000000000000000000000000000000000000000000000600052603160045260246000fd5b7f4552433732313a206d696e7420746f20746865207a65726f2061646472657373600082015250565b6000614488602083612cfc565b915061449382614452565b602082019050919050565b600060208201905081810360008301526144b78161447b565b9050919050565b7f4552433732313a20746f6b656e20616c7265616479206d696e74656400000000600082015250565b60006144f4601c83612cfc565b91506144ff826144be565b602082019050919050565b60006020820190508181036000830152614523816144e7565b905091905056fea26469706673582212208f0d589df7b1c20ffdb4acbe61cc0c7e3555dca1ff74c0e6e721e56c6e10c25964736f6c63430008090033",
  "immutableReferences": {},
  "source": "// contracts/MyNFT.sol\n// SPDX-License-Identifier: MIT\npragma solidity ^0.8.0;\n\nimport \"@openzeppelin/contracts/token/ERC721/extensions/ERC721Enumerable.sol\";\nimport \"@openzeppelin/contracts/token/ERC721/extensions/ERC721URIStorage.sol\";\nimport \"@openzeppelin/contracts/access/Ownable.sol\";\nimport \"@openzeppelin/contracts/utils/math/SafeMath.sol\";\n\ncontract MyNFT is ERC721Enumerable, Ownable {\n    using SafeMath for uint256;\n    using Strings for uint256;\n\n    address payable public _contractOwner;\n\n    mapping (uint256 => uint256) public price;\n    mapping (uint256 => bool) public listedMap;\n    mapping(uint256 => string) private _tokenURIs;\n\n    event Purchase(address indexed previousOwner, address indexed newOwner, uint256 price, uint256 nftID, string uri);\n\n    event Minted(address indexed minter, uint256 price, uint256 nftID, string uri);\n\n    event PriceUpdate(address indexed owner, uint256 oldPrice, uint256 newPrice, uint256 nftID);\n\n    event NftListStatus(address indexed owner, uint256 nftID, bool isListed);\n\n    /**\n     * @dev See {IERC721Metadata-tokenURI}.\n     */\n    function tokenURI(uint256 tokenId) public view virtual override returns (string memory) {\n        require(_exists(tokenId), \"ERC721URIStorage: URI query for nonexistent token\");\n\n        string memory _tokenURI = _tokenURIs[tokenId];\n        string memory base = _baseURI();\n\n        // If there is no base URI, return the token URI.\n        if (bytes(base).length == 0) {\n            return _tokenURI;\n        }\n        // If both are set, concatenate the baseURI and tokenURI (via abi.encodePacked).\n        if (bytes(_tokenURI).length > 0) {\n            return string(abi.encodePacked(base, _tokenURI));\n        }\n\n        return super.tokenURI(tokenId);\n    }\n\n    /**\n     * @dev Sets `_tokenURI` as the tokenURI of `tokenId`.\n     *\n     * Requirements:\n     *\n     * - `tokenId` must exist.\n     */\n    function _setTokenURI(uint256 tokenId, string memory _tokenURI) internal virtual {\n        require(_exists(tokenId), \"ERC721URIStorage: URI set of nonexistent token\");\n        _tokenURIs[tokenId] = _tokenURI;\n    }\n\n    /**\n     * @dev Destroys `tokenId`.\n     * The approval is cleared when the token is burned.\n     *\n     * Requirements:\n     *\n     * - `tokenId` must exist.\n     *\n     * Emits a {Transfer} event.\n     */\n    function _burn(uint256 tokenId) internal virtual override {\n        super._burn(tokenId);\n\n        if (bytes(_tokenURIs[tokenId]).length != 0) {\n            delete _tokenURIs[tokenId];\n        }\n    }\n\n    constructor() ERC721(\"BofC NFT\", \"BOFCNFT\") {\n        _contractOwner = payable(msg.sender);\n    }\n\n    function mint(string memory _tokenURI, address _toAddress, uint _price) public returns (uint) {\n        uint256 _tokenId = totalSupply().add(1);\n        price[_tokenId] = _price;\n        listedMap[_tokenId] = true;\n\n        _safeMint(_toAddress, _tokenId);\n        _setTokenURI(_tokenId, _tokenURI);\n\n        emit Minted(_toAddress, _price, _tokenId, _tokenURI);\n\n        return _tokenId;\n    }\n\n    function buy(uint256 _id) external payable {\n        _validate(_id);\n\n        address _previousOwner = ownerOf(_id);\n        address _newOwner = msg.sender;\n\n        _trade(_id);\n\n        emit Purchase(_previousOwner, _newOwner, price[_id], _id, tokenURI(_id));\n    }\n\n    function _validate(uint256 _id) internal {\n        bool isItemListed = listedMap[_id];\n        require(_exists(_id), \"Error, wrong tokenId\");\n        require(isItemListed, \"Item not listed currently\");\n        require(msg.value >= price[_id], \"Error, the amount is lower\");\n        require(msg.sender != ownerOf(_id), \"Can not buy what you own\");\n    }\n\n    function _trade(uint256 _id) internal {\n        address payable _buyer = payable(msg.sender);\n        address payable _owner = payable(ownerOf(_id));\n\n        _transfer(_owner, _buyer, _id);\n\n        // 1% commission cut\n        uint256 _commissionPercent = 1;\n        uint256 _commissionValue = price[_id].mul(_commissionPercent.div(100)) ;\n        uint256 _sellerValue = price[_id].sub(_commissionValue);\n\n        _owner.transfer(_sellerValue);\n        _contractOwner.transfer(_commissionValue);\n\n        // If buyer sent more than price, we send them back their rest of funds\n        if (msg.value > price[_id]) {\n            _buyer.transfer(msg.value.sub(price[_id]));\n        }\n\n        listedMap[_id] = false;\n    }\n\n    function updatePrice(uint256 _tokenId, uint256 _price) public returns (bool) {\n        uint256 oldPrice = price[_tokenId];\n        require(msg.sender == ownerOf(_tokenId), \"Error, you are not the owner\");\n        price[_tokenId] = _price;\n\n        emit PriceUpdate(msg.sender, oldPrice, _price, _tokenId);\n        return true;\n    }\n\n    function updateListingStatus(uint256 _tokenId, bool shouldBeListed) public returns (bool) {\n        require(msg.sender == ownerOf(_tokenId), \"Error, you are not the owner\");\n\n        listedMap[_tokenId] = shouldBeListed;\n\n        emit NftListStatus(msg.sender, _tokenId, shouldBeListed);\n\n        return true;\n    }\n}\n",
  "sourcePath": "/home/alex/smart-contracts/contracts/MyNFT.sol",
  "compiler": {
    "name": "solc",
    "version": "0.8.9+commit.e5eed63a.Emscripten.clang"
  },
  "schemaVersion": "3.4.3",
  "updatedAt": "2021-12-27T12:17:07.081Z",
  "devdoc": {
    "kind": "dev",
    "methods": {
      "approve(address,uint256)": {
        "details": "See {IERC721-approve}."
      },
      "balanceOf(address)": {
        "details": "See {IERC721-balanceOf}."
      },
      "getApproved(uint256)": {
        "details": "See {IERC721-getApproved}."
      },
      "isApprovedForAll(address,address)": {
        "details": "See {IERC721-isApprovedForAll}."
      },
      "name()": {
        "details": "See {IERC721Metadata-name}."
      },
      "owner()": {
        "details": "Returns the address of the current owner."
      },
      "ownerOf(uint256)": {
        "details": "See {IERC721-ownerOf}."
      },
      "renounceOwnership()": {
        "details": "Leaves the contract without owner. It will not be possible to call `onlyOwner` functions anymore. Can only be called by the current owner. NOTE: Renouncing ownership will leave the contract without an owner, thereby removing any functionality that is only available to the owner."
      },
      "safeTransferFrom(address,address,uint256)": {
        "details": "See {IERC721-safeTransferFrom}."
      },
      "safeTransferFrom(address,address,uint256,bytes)": {
        "details": "See {IERC721-safeTransferFrom}."
      },
      "setApprovalForAll(address,bool)": {
        "details": "See {IERC721-setApprovalForAll}."
      },
      "supportsInterface(bytes4)": {
        "details": "See {IERC165-supportsInterface}."
      },
      "symbol()": {
        "details": "See {IERC721Metadata-symbol}."
      },
      "tokenByIndex(uint256)": {
        "details": "See {IERC721Enumerable-tokenByIndex}."
      },
      "tokenOfOwnerByIndex(address,uint256)": {
        "details": "See {IERC721Enumerable-tokenOfOwnerByIndex}."
      },
      "tokenURI(uint256)": {
        "details": "See {IERC721Metadata-tokenURI}."
      },
      "totalSupply()": {
        "details": "See {IERC721Enumerable-totalSupply}."
      },
      "transferFrom(address,address,uint256)": {
        "details": "See {IERC721-transferFrom}."
      },
      "transferOwnership(address)": {
        "details": "Transfers ownership of the contract to a new account (`newOwner`). Can only be called by the current owner."
      }
    },
    "version": 1
  },
  "userdoc": {
    "kind": "user",
    "methods": {},
    "version": 1
  }
}